:060000000A128A11FC2F18
:100F8200831203131014901190148E018F01080024
:100F9200F000831203130C1ECA2F0C127008990062
:100FA200080083160313071383120313981783167B
:100FB20003139816181218131815CF309900080049
:100FC20083160313071487140A128A11C1270A12FF
:100FD2008A110A128A11D2270A128A118312031362
:100FE2000E08F1007108F20072080A128A11C9276C
:0E0FF2000A128A11EF2F83010A128A11E12FD1
:02400E0079FF38
:00000001FF
